:100000000C9434000C9449000C9449000C94490061
:100010000C9449000C9449000C9449000C9449003C
:100020000C9449000C9449000C9449000C9449002C
:100030000C9449000C9449000C9449000C9449001C
:100040000C9449000C9449000C9449000C9449000C
:100050000C9449000C9449000C9449000C944900FC
:100060000C9449000C94490011241FBECFEFD4E03A
:10007000DEBFCDBF11E0A0E0B1E0ECE4F4E002C0EF
:1000800005900D92A633B107D9F70E945E010C943A
:1000900024020C9400001092C5008CE08093C400F0
:1000A000E0ECF0E080818260808388E18093C10091
:1000B00086E08093C20008959091C00095FFFCCF28
:1000C0008093C60008958091C00087FFFCCF809187
:1000D000C60008958091C00087FF03C08091C600CC
:1000E000089580E008951F93CF93DF93EC0110E013
:1000F000FE01E10FF11D8081882321F00E945C0048
:100100001F5FF6CFDF91CF911F910895CF92DF92BD
:10011000EF92FF920F931F93CF93DF937C01D12C2B
:10012000062F10E001501109CD2DD0E0C017D107E6
:1001300044F40E946300C82E0E945C008DE0C81247
:100140000CC0CE0DDF1D1882DF91CF911F910F9152
:10015000FF90EF90DF90CF900895CE0DDF1DC88205
:10016000D394E2CFCF93C82F64E60E940402805D4F
:100170000E945C002AE08C2F622F0E940402C92F8B
:100180000E94040280E3890F0E945C0080E38C0FD0
:10019000CF910C945C000F931F93CF93DF93EC01EE
:1001A00060E177E20E94100280E3860F0E945C000B
:1001B000CE0168EE73E00E941002CB010AE010E06D
:1001C000B8010E941002805D0E945C00CE0164E6CE
:1001D00070E00E941002CB01B8010E941002805D05
:1001E0000E945C00CE01B8010E941002C82FCB0112
:1001F000B8010E941002805D0E945C0080E38C0FB9
:10020000DF91CF911F910F910C945C001F93CF93BE
:10021000DF931F92CDB7DEB7898317E0898190E025
:10022000012E02C0959587950A94E2F780FF02C0DF
:1002300081E301C080E30E945C00115078F70F90C9
:10024000DF91CF911F9108958A3010F4805D089559
:10025000895C0895CF93C82F82958F700E942401E6
:100260000E945C008C2F8F700E942401CF910C940F
:100270005C000F931F93CF93DF93D0E3C0E300E3C1
:100280000E946300182F0E945C001D3021F00C2F8B
:10029000CD2FD12FF5CFD053005384E6089FD00D3A
:1002A00011249C2F990F9056892F880F880F890F42
:1002B0008D0FDF91CF911F910F9108950E944B00F8
:1002C00080917C00806480937C0080917A008360C0
:1002D00080937A0080917A00806880937A008FEF13
:1002E00084B956985E9A8DE00E945C008AE00E9474
:1002F0005C0080E091E00E9473008DE00E945C0051
:100300008AE00E945C00EE24E394F12C4E9906C032
:1003100080917A00806480937A0005C00E946A0010
:100320008837A1F7F5CF80917A0086FDFCCF009148
:10033000780010917900E801CC0FCD2FCC1FDD0B98
:10034000D1954C2F15B820E035B1C701022E01C060
:10035000880F0A94EAF7382B35B92F5F4217A0F7B8
:100360008DE091E00E947300C8019695879596955F
:1003700087950E94B20080E291E00E9473008C2F6A
:100380000E94060183E291E00E94730086E291E000
:100390000E9473000E94DC010E94CB0080E20E9458
:1003A0005C000E94FC010E94B2008DE00E945C0093
:1003B0008AE00E945C00AACF579A5F9800C05F9ABB
:1003C00023E02A95F1F700005F98579889B190E0F3
:1003D0008F679F6F0196D1F780E090E04F9B03C03D
:1003E00000000196FBCF08950E94DC016AE370E0F3
:1003F0000E941002CB0108950E94DC0164E970E0C4
:100400000E941002862F0895991B79E004C0991F5D
:10041000961708F0961B881F7A95C9F7809508955E
:10042000AA1BBB1B51E107C0AA1FBB1FA617B7071A
:1004300010F0A61BB70B881F991F5A95A9F7809536
:0C0440009095BC01CD010895F894FFCF09
:10044C0048656C6C6F20776F726C642100726573F9
:10045C006973746F722072656164696E673A20000B
:10046C00202800292000207C20756C747261736F29
:06047C006E69633A2000E6
:00000001FF
