:100000000C9434000C9451000C9451000C94510049
:100010000C9451000C9451000C9451000C9451001C
:100020000C9451000C9451000C9451000C9451000C
:100030000C9451000C9451000C9451000C945100FC
:100040000C9451000C9451000C9451000C945100EC
:100050000C9451000C9451000C9451000C945100DC
:100060000C9451000C94510011241FBECFEFD4E02A
:10007000DEBFCDBF11E0A0E0B1E0E4E4F9E002C0F2
:1000800005900D92AE3EB107D9F721E0AEEEB1E09A
:1000900001C01D92A03FB207E1F70E9402020C943A
:1000A000A0040C9400001092C5008CE08093C40062
:1000B000E0ECF0E080818260808388E18093C10081
:1000C00086E08093C20008959091C00095FFFCCF18
:1000D0008093C60008958091C00087FFFCCF809177
:1000E000C60008958091C00087FF03C08091C600BC
:1000F000089580E008951F93CF93DF93EC0110E003
:10010000FE01E10FF11D8081882321F00E9464002F
:100110001F5FF6CFDF91CF911F910895CF92DF92AD
:10012000EF92FF920F931F93CF93DF937C01D12C1B
:10013000062F10E001501109CD2DD0E0C017D107D6
:1001400044F40E946B00C82E0E9464008DE0C81227
:100150000CC0CE0DDF1D1882DF91CF911F910F9142
:10016000FF90EF90DF90CF900895CE0DDF1DC882F5
:10017000D394E2CFCF93C82F64E60E94FB02805D48
:100180000E9464002AE08C2F622F0E94FB02C92F7C
:100190000E94FB0280E3890F0E94640080E38C0FC1
:1001A000CF910C9464000F931F93CF93DF93EC01D6
:1001B00060E177E20E94070380E3860F0E946400FB
:1001C000CE0168EE73E00E940703CB010AE010E065
:1001D000B8010E940703805D0E946400CE0164E6BE
:1001E00070E00E940703CB01B8010E940703805D05
:1001F0000E946400CE01B8010E940703C82FCB0102
:10020000B8010E940703805D0E94640080E38C0FA8
:10021000DF91CF911F910F910C9464001F93CF93A6
:10022000DF931F92CDB7DEB7898317E0898190E015
:10023000012E02C0959587950A94E2F780FF02C0CF
:1002400081E301C080E30E946400115078F70F90B1
:10025000DF91CF911F9108958A3010F4805D089549
:10026000895C0895CF93C82F82958F700E942C01CE
:100270000E9464008C2F8F700E942C01CF910C94EF
:1002800064000F931F93CF93DF93D0E3C0E300E3A9
:100290000E946B00182F0E9464001D3021F00C2F6B
:1002A000CD2FD12FF5CFD053005384E6089FD00D2A
:1002B00011249C2F990F9056892F880F880F890F32
:1002C0008D0FDF91CF911F910F910895EF92FF92C3
:1002D0000F931F93CF93DF937C018DE00E94640006
:1002E0008AE00E94640080E091E00E947B008DE043
:1002F0000E9464008AE00E9464000E946B008D30BE
:10030000E1F780917A00806480937A0080917A008E
:1003100086FDFCCFC0917800D091790083E391E015
:100320000E947B00CE010E94D3008DE00E946400F9
:100330008AE00E94640083E491E00E947B008DE0EB
:100340000E9464008AE00E9464000E946B008D306D
:10035000E1F780917A00806480937A0080917A003E
:1003600086FDFCCF009178001091790083E391E045
:100370000E947B00C8010E94D3000C171D0750F497
:1003800087E791E00E947B0080917800909179004E
:100390008E01EC01F701D183C08313830283DF91C7
:1003A000CF911F910F91FF90EF9008954E990DC03E
:1003B00083EF91E00197F1F700C0000089B186FB5F
:1003C000882780F991E0892701C080E08093EF01C0
:1003D00008954E990DC083EF91E00197F1F700C0A9
:1003E000000089B186FB882780F991E0892701C048
:1003F00080E09091EE018093EE01813009F491113B
:1004000080E008950E94530080917C008064809376
:100410007C0080917A00836080937A0080917A00DA
:10042000806880937A008FEF84B956985E9A8DE049
:100430000E9464008AE00E94640081EA91E00E94C8
:100440007B008DE00E9464008AE00E9464008DE0E1
:100450000E9464008AE00E9464008EEA91E00E949B
:100460007B0080E090E00E94D3008FEB91E00E943F
:100470007B008FEF93E00E94D30082EC91E00E941A
:100480007B008DE00E9464008AE00E946400CFEF50
:10049000D3E001E010E00E94E901882331F080916F
:1004A0007A00806480937A0005C00E9472008837C9
:1004B00091F7F5CF80917A0086FDFCCF809178008E
:1004C00090917900BE010E94070380E090E00E94B5
:1004D000AF03905820E030EC4FE754E40E943D0415
:1004E0000E9483036B017C015B01AA0CAB2CAA1C4C
:1004F000BB08B1944A2D15B820E035B1C801022ED1
:1005000001C0880F0A94EAF7382B35B92F5F4217DC
:10051000A0F784EC91E00E947B00C6019695879538
:10052000969587950E94BA0087ED91E00E947B0026
:100530008A2D0E940E018AED91E00E947B008DEDD4
:1005400091E00E947B000E94B5020E94D30080E2ED
:100550000E9464000E94E4020E94BA008DE00E94A2
:1005600064008AE00E94640096CF579A5F9800C0AA
:100570005F9A23E02A95F1F700005F98579889B1B8
:1005800090E08F679F6F0196D1F780E090E04F9BDE
:1005900003C000000196FBCF08950E94B502BC0184
:1005A00080E090E00E94AF032CE53FE842E850E491
:1005B0000E941B0320E030E040E05FE30E943D0426
:1005C0000E948303CB0108950E94B502BC0180E024
:1005D00090E00E94AF0326E636E646E251E40E9430
:1005E0001B0320E030E040E05FE30E943D040E94F6
:1005F0008303862F0895991B79E004C0991F9617ED
:1006000008F0961B881F7A95C9F780950895AA1B54
:10061000BB1B51E107C0AA1FBB1FA617B70710F0ED
:10062000A61BB70B881F991F5A95A9F7809590951F
:10063000BC01CD0108950CD0E6C0DED040F0D5D08D
:1006400030F021F45F3F19F0C7C0511110C1CAC08A
:10065000EBD098F39923C9F35523B1F3951B550BB0
:10066000BB27AA2762177307840738F09F5F5F4F85
:10067000220F331F441FAA1FA9F333D00E2E3AF0C6
:10068000E0E830D091505040E695001CCAF729D0E0
:10069000FE2F27D0660F771F881FBB1F261737072F
:1006A0004807AB07B0E809F0BB0B802DBF01FF275F
:1006B00093585F4F2AF09E3F510568F08DC0D7C018
:1006C0005F3FECF3983EDCF3869577956795B79599
:1006D000F7959F5FC9F7880F911D9695879597F9B4
:1006E0000895E1E0660F771F881FBB1F621773072D
:1006F0008407BA0720F0621B730B840BBA0BEE1F42
:1007000088F7E095089598D088F09F5790F0B92F1A
:100710009927B751A0F0D1F0660F771F881F991F56
:100720001AF0BA95C9F712C0B13081F09FD0B1E08C
:1007300008959CC0672F782F8827B85F39F0B93F9C
:10074000CCF3869577956795B395D9F73EF4909558
:100750008095709561957F4F8F4F9F4F0895E894D6
:1007600009C097FB3EF490958095709561957F4FF9
:100770008F4F9F4F9923A9F0F92F96E9BB279395A7
:10078000F695879577956795B795F111F8CFFAF4B7
:10079000BB0F11F460FF1BC06F5F7F4F8F4F9F4FE8
:1007A00016C0882311F096E911C0772321F09EE846
:1007B000872F762F05C0662371F096E8862F70E0AC
:1007C00060E02AF09A95660F771F881FDAF7880F86
:1007D0009695879597F9089597F99F6780E870E057
:1007E00060E008959FEF80EC089500240A941616A7
:1007F000170618060906089500240A94121613060F
:10080000140605060895092E0394000C11F488239C
:1008100052F0BB0F40F4BF2B11F460FF04C06F5FB8
:100820007F4F8F4F9F4F089557FD9058440F551F8E
:1008300059F05F3F71F04795880F97FB991F61F062
:100840009F3F79F087950895121613061406551FD9
:10085000F2CF4695F1DF08C0161617061806991F45
:10086000F1CF86957105610508940895E894BB273A
:1008700066277727CB0197F908950BD0C4CFB5DF52
:1008800028F0BADF18F0952309F0A6CFABCF1124DA
:10089000EECFCADFA0F3959FD1F3950F50E0551F1F
:1008A000629FF001729FBB27F00DB11D639FAA27C5
:1008B000F00DB11DAA1F649F6627B00DA11D661F14
:1008C000829F2227B00DA11D621F739FB00DA11D35
:1008D000621F839FA00D611D221F749F3327A00DEF
:1008E000611D231F849F600D211D822F762F6A2F8B
:1008F00011249F5750408AF0E1F088234AF0EE0F10
:10090000FF1FBB1F661F771F881F91505040A9F71C
:100910009E3F510570F060CFAACF5F3FECF3983E49
:10092000DCF3869577956795B795F795E7959F5F83
:10093000C1F7FE2B880F911D9695879597F908951D
:04094000F894FFCF59
:10094400536574207468652041444320746F2069A2
:100954007473204C4F574553542073657474696EF7
:100964006720616E6420686974203C656E746572EA
:100974003E21002E202E202E2052656164696E6770
:100984003A20005365742074686520414443207400
:100994006F20697473204849474845535420736550
:1009A4007474696E6720616E6420686974203C65A4
:1009B4006E7465723E2100796F7520676F742074C0
:1009C40068656D206261636B7761726473212020B6
:1009D400666978696E67206974206E6F772E2E2E93
:1009E4000048656C6C6F20776F726C6421006361E2
:1009F4006C6962726174652077697468205B002C8D
:100A040020005D007265736973746F722072656192
:100A140064696E673A2000202800292000207C2089
:0E0A2400756C747261736F6E69633A20000026
:00000001FF
